:020000040800F2
:10000000FF4F0020E935000831360008313600087E
:100010003136000831360008313600080000000093
:100020000000000000000000000000003136000861
:100030003136000800000000313600083136000873
:1000400031360008313600083136000831360008F4
:1000500031360008313600083136000831360008E4
:1000600031360008313600083136000831360008D4
:1000700031360008313600083136000831360008C4
:1000800031360008313600083136000831360008B4
:1000900031360008313600083136000831360008A4
:1000A00031360008052A00083136000831360008CC
:1000B0003136000831360008313600083136000884
:1000C0003136000831360008313600083136000874
:1000D0003136000831360008313600083136000864
:1000E00031360008313600083136000800000000C3
:1000F0000000000000000000000000000000000000
:0C01000000000000000000005FF808F1A3
:10010C0010B5054C237833B9044B13B10448AFF345
:10011C0000800123237010BD50040020000000005B
:10012C0034360008084B10B51BB108480849AFF32A
:10013C0000800848036803B910BD074B002BFBD0A7
:10014C00BDE81040184700BF00000000343600081E
:10015C0054040020500400200000000080B582B040
:10016C0000AF78607B68784A93420AD14FF4006004
:10017C00012102F08BFF4FF40060002102F086FF9A
:10018C00DEE07B68B3F1804F08D10120012102F041
:10019C009BFF0120002102F097FFD1E07B686B4AA6
:1001AC00934208D10220012102F08EFF022000218F
:1001BC0002F08AFFC4E07B68654A934208D10420B0
:1001CC00012102F081FF0420002102F07DFFB7E045
:1001DC007B68604A934208D10820012102F074FF29
:1001EC000820002102F070FFAAE07B685A4A934273
:1001FC0008D11020012102F067FF1020002102F02D
:10020C0063FF9DE07B68554A934208D12020012171
:10021C0002F05AFF2020002102F056FF90E07B688C
:10022C004F4A93420AD14FF40050012102F02EFFA5
:10023C004FF40050002102F029FF81E07B68494A0D
:10024C0093420AD14FF40020012102F01FFF4FF41A
:10025C000020002102F01AFF72E07B68424A9342B0
:10026C000AD14FF48010012102F010FF4FF48010DE
:10027C00002102F00BFF63E07B683C4A93420AD1F9
:10028C004FF40010012102F001FF4FF40010002187
:10029C0002F0FCFE54E07B68354A934208D14020C2
:1002AC00012102F011FF4020002102F00DFF47E078
:1002BC007B68304A934208D18020012102F004FF70
:1002CC008020002102F000FF3AE07B682A4A93422A
:1002DC000AD14FF48070012102F0F6FE4FF48070C9
:1002EC00002102F0F1FE2BE07B68244A93420AD1F4
:1002FC004FF48030012102F0C9FE4FF48030002110
:10030C0002F0C4FE1CE07B681D4A93420AD14FF4F4
:10031C000030012102F0BAFE4FF40030002102F04F
:10032C00B5FE0DE07B68174A934209D14FF480204B
:10033C00012102F0ABFE4FF48020002102F0A6FE5A
:10034C000837BD4680BD00BF002C014000040040B2
:10035C0000080040000C0040001000400014004059
:10036C0000340140004C0140005001400054014059
:10037C0000180040001C00400020004000400140DC
:10038C00004401400048014080B485B000AF786063
:10039C0039600023FB817B681B88FB817B682E4ABC
:1003AC00934213D07B682D4A93420FD07B68B3F1F4
:1003BC00804F0BD07B682A4A934207D07B68294A2E
:1003CC00934203D07B68284A934208D1FB8923F0DF
:1003DC007003FB813B685A88FB891343FB817B6864
:1003EC00224A93420CD07B68214A934208D0FB8965
:1003FC0023F44073FB813B68DA88FB891343FB8150
:10040C007B68FA891A803B689A887B689A853B6876
:10041C001A887B681A857B680F4A93420FD07B68D9
:10042C000E4A93420BD07B68124A934207D07B68EA
:10043C00114A934203D07B68104A934204D13B6823
:10044C001B7A9AB27B681A867B6801229A821437CF
:10045C00BD465DF8047B7047002C01400034014020
:10046C000004004000080040000C00400010004058
:10047C00001400400040014000440140004801408D
:10048C0080B485B000AF7860396000237B81002395
:10049C00FB810023BB817B681B8C9BB223F0010387
:1004AC009AB27B681A847B681B8CFB817B689B8867
:1004BC00BB817B681B8B7B817B8923F070037B81E9
:1004CC007B8923F003037B813B681A887B89134368
:1004DC007B81FB8923F00203FB813B681A89FB8932
:1004EC001343FB813B685A88FB891343FB817B6870
:1004FC00244A93420FD07B68234A93420BD07B68EB
:10050C00224A934207D07B68214A934203D07B68EE
:10051C00204A934223D1FB8923F00803FB813B68DB
:10052C005A89FB891343FB81FB8923F00403FB816C
:10053C003B689A88FB891343FB81BB8923F4807346
:10054C00BB81BB8923F40073BB813B689A89BB894F
:10055C001343BB813B68DA89BB891343BB817B683E
:10056C00BA899A807B687A891A833B68DA887B68B7
:10057C009A867B68FA891A841437BD465DF8047B29
:10058C00704700BF002C0140003401400040014086
:10059C00004401400048014080B485B000AF786051
:1005AC00396000237B810023FB810023BB817B68A6
:1005BC001B8C9BB223F010039AB27B681A847B6865
:1005CC001B8CFB817B689B88BB817B681B8B7B8135
:1005DC007B8923F4E0437B817B8923F440737B810B
:1005EC003B681B881B029AB27B8913437B81FB8976
:1005FC0023F02003FB813B681B891B019AB2FB890A
:10060C001343FB813B685B881B019AB2FB89134344
:10061C00FB817B68224A934203D07B68214A934238
:10062C002BD1FB8923F08003FB813B685B891B0189
:10063C009AB2FB891343FB81FB8923F04003FB81B6
:10064C003B689B881B019AB2FB891343FB81BB89D6
:10065C0023F48063BB81BB8923F40063BB813B68BB
:10066C009B899B009AB2BB891343BB813B68DB8996
:10067C009B009AB2BB891343BB817B68BA899A8071
:10068C007B687A891A833B68DA887B681A877B686F
:10069C00FA891A841437BD465DF8047B704700BF95
:1006AC00002C01400034014080B485B000AF78606C
:1006BC00396000237B810023FB810023BB817B6895
:1006CC001B8C9BB223F480739AB27B681A847B6870
:1006DC001B8CFB817B689B88BB817B689B8B7B81A4
:1006EC007B8923F070037B817B8923F003037B815F
:1006FC003B681A887B8913437B81FB8923F4007345
:10070C00FB813B681B891B029AB2FB891343FB815B
:10071C003B685B881B029AB2FB891343FB817B68A5
:10072C00224A934203D07B68214A93422BD1FB8906
:10073C0023F40063FB813B685B891B029AB2FB8943
:10074C001343FB81FB8923F48063FB813B689B880B
:10075C001B029AB2FB891343FB81BB8923F48053A0
:10076C00BB81BB8923F40053BB813B689B891B0174
:10077C009AB2BB891343BB813B68DB891B019AB2DC
:10078C00BB891343BB817B68BA899A807B687A8961
:10079C009A833B68DA887B689A877B68FA891A8423
:1007AC001437BD465DF8047B704700BF002C014038
:1007BC000034014080B485B000AF7860396000230C
:1007CC00BB8100237B810023FB817B681B8C9BB24C
:1007DC0023F480539AB27B681A847B681B8C7B81D0
:1007EC007B689B88FB817B689B8BBB81BB8923F4DB
:1007FC00E043BB81BB8923F44073BB813B681B88FE
:10080C001B029AB2BB891343BB817B8923F400532F
:10081C007B813B681B891B039AB27B8913437B81C9
:10082C003B685B881B039AB27B8913437B817B6893
:10083C00124A934203D07B68114A93420AD1FB8936
:10084C0023F48043FB813B689B899B019AB2FB8913
:10085C001343FB817B68FA899A807B68BA899A83F7
:10086C003B68DA887B68A3F840207B687A891A8415
:10087C001437BD465DF8047B704700BF002C014067
:10088C000034014080B582B000AF786039603B68BD
:10089C001B88002B0FD13B6859883B689A883B68B2
:1008AC001B89786801F086F93B68DB887868194603
:1008BC0001F036F836E03B681B88042B0FD13B68FF
:1008CC0059883B689A883B681B89786801F0E2F983
:1008DC003B68DB887868194601F03EF822E03B68FB
:1008EC001B88082B0FD13B6859883B689A883B685A
:1008FC001B89786801F048FA3B68DB8878681946F0
:10090C0001F048F80EE03B6859883B689A883B68D0
:10091C001B89786801F0AEFA3B68DB887868194669
:10092C0001F054F80837BD4680BD00BF80B584B0D7
:10093C0000AF786039600023FB810123BB813B68E9
:10094C005B88002B02D10223FB8101E00023FB8199
:10095C003B689B88012B02D10223BB8101E0012360
:10096C00BB813B681B88002B1CD13B6859883B68BA
:10097C009A883B681B89786801F01CF93B68DB8816
:10098C007868194600F0CCFF3B681B89F989BA8955
:10099C00786801F07FF93B68DB887868194600F0CD
:1009AC00DBFF1BE03B6859883B689A883B681B89D6
:1009BC00786801F06FF93B68DB887868194600F0BD
:1009CC00CBFF3B681B89F989BA89786801F0F2F88A
:1009DC003B68DB887868194600F0A2FF1037BD46EB
:1009EC0080BD00BF80B483B000AF786039603B68D5
:1009FC001A883B685B8813439AB23B689B88134305
:100A0C009AB23B68DB8813439AB23B681B89134349
:100A1C009AB23B685B8913439AB23B689B89134338
:100A2C009AB27B68A3F844200C37BD465DF8047B72
:100A3C00704700BF80B483B000AF78607B684FF61E
:100A4C00FF729A807B6800221A807B680022DA8011
:100A5C007B6800225A807B6800221A720C37BD46D4
:100A6C005DF8047B704700BF80B483B000AF786042
:100A7C007B6800221A807B6800225A807B680022E7
:100A8C009A807B680022DA807B6800221A817B685E
:100A9C0000225A817B6800229A817B680022DA81CD
:100AAC000C37BD465DF8047B704700BF80B483B043
:100ABC0000AF78607B6800221A807B6800225A8025
:100ACC007B6801229A807B680022DA807B68002296
:100ADC001A810C37BD465DF8047B704780B483B037
:100AEC0000AF78607B6800221A807B6800225A80F5
:100AFC007B6800229A807B680022DA807B68002267
:100B0C001A817B6800225A817B6800229A810C37FB
:100B1C00BD465DF8047B704780B483B000AF78604D
:100B2C000B46FB70FB78002B08D07B681B889BB2B4
:100B3C0043F001039AB27B681A8007E07B681B883C
:100B4C009BB223F001039AB27B681A800C37BD4626
:100B5C005DF8047B704700BF80B483B000AF786051
:100B6C000B46FB70FB78002B0CD07B68B3F8443041
:100B7C009BB26FEA43436FEA53439AB27B68A3F884
:100B8C00442009E07B68B3F844309BB2C3F30E03F6
:100B9C009AB27B68A3F844200C37BD465DF8047B01
:100BAC00704700BF80B483B000AF78600B467B8089
:100BBC0013467B707B78002B08D07B689B899AB29C
:100BCC007B8813439AB27B689A8109E07B689B8986
:100BDC009AB27B88DB439BB213409AB27B689A81B2
:100BEC000C37BD465DF8047B704700BF80B483B002
:100BFC0000AF78600B467B807B687A889A820C37D2
:100C0C00BD465DF8047B704780B483B000AF78605C
:100C1C000B467B8013463B807A883B8813439AB201
:100C2C007B68A3F848200C37BD465DF8047B704701
:100C3C0080B483B000AF78600B467B8013467B702A
:100C4C007B78002B08D07B689B899AB27B881343F6
:100C5C009AB27B689A8109E07B689B899AB27B88FF
:100C6C00DB439BB213409AB27B689A810C37BD462A
:100C7C005DF8047B704700BF80B483B000AF786030
:100C8C007B681B899BB223F007039AB27B681A819D
:100C9C000C37BD465DF8047B704700BF80B582B051
:100CAC0000AF78600B467B807B887868194600F033
:100CBC00E1F87B681B899BB243F007039AB27B680F
:100CCC001A810837BD4680BD80B584B000AFF8608E
:100CDC00084611461A4603467B810B463B81134658
:100CEC00FB807B89602B07D13A89FB88F868114619
:100CFC00012200F0CFFF06E03A89FB88F868114624
:100D0C00012200F057FF7B89F868194600F0B2F811
:100D1C00FB681B899BB243F007039AB2FB681A81EC
:100D2C001037BD4680BD00BF80B586B000AFF860FF
:100D3C00084611461A4603467B810B463B811346F7
:100D4C00FB800023FB8279893A89FB88F86800F0E4
:100D5C0037F8FB681B89FB82FB8A23F00703FB82B5
:100D6C00FB8A43F00703FB82FB8A23F07003FB82B0
:100D7C00FB8A43F07003FB82FB68FA8A1A811837EE
:100D8C00BD4680BD80B584B000AFF8600846114602
:100D9C001A4603467B810B463B811346FB807989BF
:100DAC003A89FB88F86800F00BF8FB681B899BB24A
:100DBC0043F480439AB2FB681A811037BD4680BD5C
:100DCC0080B487B000AFF860084611461A46034657
:100DDC007B810B463B811346FB800023FB82FB6827
:100DEC001B89FB82FB8ADBB2FB82FB881B029AB25B
:100DFC003B8913439AB27B8913439AB2FB8A134300
:100E0C00FB82FB68FA8A1A811C37BD465DF8047BAD
:100E1C00704700BF80B483B000AF78600B467B8016
:100E2C0013463B807B687A881A857B683A889A825D
:100E3C000C37BD465DF8047B704700BF80B485B0AD
:100E4C0000AF78600B467B800023FB817B681B889E
:100E5C00FB81FB8923F07003FB81FA897B881343A8
:100E6C00FB817B68FA891A801437BD465DF8047BD8
:100E7C00704700BF80B485B000AF78600B467B80B4
:100E8C000023FB817B681B89FB81FB8923F07003AA
:100E9C00FB81FA897B881343FB817B68FA891A8171
:100EAC001437BD465DF8047B704700BF80B487B033
:100EBC0000AFF860084611461A4603467B810B4684
:100ECC003B811346FB800023FB820023BB82002363
:100EDC007B82FB681B89FB82FB681B8BBB82FB68DC
:100EEC001B8C7B82FB8A23F00703FB82FA8A7B89AB
:100EFC001343FB82BB8A23F4407323F00303BB82AE
:100F0C00BB8A43F4807343F00103BB827B8A23F0DA
:100F1C0022037B82FB881B019AB23B8913439AB252
:100F2C007B8A13437B82FB68FA8A1A81FB68BA8A34
:100F3C001A83FB687A8A1A841C37BD465DF8047BD9
:100F4C00704700BF80B485B000AF78600B467B80E3
:100F5C000023FB817B681B8BFB81FB8923F07003D7
:100F6C00FB81FA897B881343FB817B68FA891A839E
:100F7C001437BD465DF8047B704700BF80B485B064
:100F8C0000AF78600B467B800023FB817B681B8B5A
:100F9C00FB81FB8923F4E043FB817B881B029AB223
:100FAC00FB891343FB817B68FA891A831437BD468E
:100FBC005DF8047B704700BF80B485B000AF7860EB
:100FCC000B467B800023FB817B689B8BFB81FB8921
:100FDC0023F07003FB81FA897B881343FB817B68C8
:100FEC00FA899A831437BD465DF8047B704700BFBD
:100FFC0080B485B000AF78600B467B800023FB810A
:10100C007B689B8BFB81FB8923F4E043FB817B8812
:10101C001B029AB2FB891343FB817B68FA899A8382
:10102C001437BD465DF8047B704700BF80B483B0B5
:10103C0000AF78600B46FB70FB78002B08D07B6808
:10104C001B889BB243F080039AB27B681A8007E03E
:10105C007B681B889BB223F080039AB27B681A8052
:10106C000C37BD465DF8047B704700BF80B483B07D
:10107C0000AF78600B46FB70FB78002B08D07B68C8
:10108C009B889BB243F004039AB27B689A8007E07A
:10109C007B689B889BB223F004039AB27B689A808E
:1010AC000C37BD465DF8047B704700BF80B483B03D
:1010BC0000AF78600B46FB70FB78002B08D07B6888
:1010CC009B889BB243F008039AB27B689A8007E036
:1010DC007B689B889BB223F008039AB27B689A804A
:1010EC000C37BD465DF8047B704700BF80B483B0FD
:1010FC0000AF78600B46FB70FB78002B08D07B6848
:10110C009B889BB243F001039AB27B689A8007E0FC
:10111C007B689B889BB223F001039AB27B689A8010
:10112C000C37BD465DF8047B704700BF80B485B0BA
:10113C0000AF78600B467B800023FB817B681B8BA8
:10114C00FB81FB8923F00803FB81FA897B8813431D
:10115C00FB817B68FA891A831437BD465DF8047BE2
:10116C00704700BF80B485B000AF78600B467B80C1
:10117C000023FB817B681B8BFB81FB8923F40063C1
:10118C00FB817B881B029AB2FB891343FB817B6832
:10119C00FA891A831437BD465DF8047B704700BF8B
:1011AC0080B485B000AF78600B467B800023FB8158
:1011BC007B689B8BFB81FB8923F00803FB81FA89FD
:1011CC007B881343FB817B68FA899A831437BD466D
:1011DC005DF8047B704700BF80B485B000AF7860C9
:1011EC000B467B800023FB817B689B8BFB81FB89FF
:1011FC0023F40063FB817B881B029AB2FB891343A7
:10120C00FB817B68FA899A831437BD465DF8047BB1
:10121C00704700BF80B485B000AF78600B467B8010
:10122C000023FB817B681B8BFB81FB8923F0040370
:10123C00FB81FA897B881343FB817B68FA891A83CB
:10124C001437BD465DF8047B704700BF80B485B091
:10125C0000AF78600B467B800023FB817B681B8B87
:10126C00FB81FB8923F48063FB817B881B029AB290
:10127C00FB891343FB817B68FA891A831437BD46BB
:10128C005DF8047B704700BF80B485B000AF786018
:10129C000B467B800023FB817B689B8BFB81FB894E
:1012AC0023F00403FB81FA897B881343FB817B6861
:1012BC00FA899A831437BD465DF8047B704700BFEA
:1012CC0080B485B000AF78600B467B800023FB8137
:1012DC007B689B8BFB81FB8923F48063FB817B8880
:1012EC001B029AB2FB891343FB817B68FA899A83B0
:1012FC001437BD465DF8047B704700BF80B485B0E1
:10130C0000AF78600B467B800023FB817B681B8BD6
:10131C00FB81FB8923F08003FB81FA897B881343D3
:10132C00FB817B68FA891A831437BD465DF8047B10
:10133C00704700BF80B485B000AF78600B467B80EF
:10134C000023FB817B681B8BFB81FB89C3F30E03A2
:10135C00FB817B881B029AB2FB891343FB817B6860
:10136C00FA891A831437BD465DF8047B704700BFB9
:10137C0080B485B000AF78600B467B800023FB8186
:10138C007B689B8BFB81FB8923F08003FB81FA89B3
:10139C007B881343FB817B68FA899A831437BD469B
:1013AC005DF8047B704700BF80B485B000AF7860F7
:1013BC000B467B800023FB817B689B8BFB81FB892D
:1013CC00C3F30E03FB817B881B029AB2FB89134388
:1013DC00FB817B68FA899A831437BD465DF8047BE0
:1013EC00704700BF80B485B000AF78600B467B803F
:1013FC000023FB817B681B8CFB81FB8923F00203A0
:10140C00FB81FA897B881343FB817B68FA891A84F8
:10141C001437BD465DF8047B704700BF80B485B0BF
:10142C0000AF78600B467B800023FB817B681B8CB4
:10143C00FB81FB8923F00803FB81FA897B8813432A
:10144C00FB817B68FA891A841437BD465DF8047BEE
:10145C00704700BF80B485B000AF78600B467B80CE
:10146C000023FB817B681B8CFB81FB8923F0200311
:10147C00FB817B881B019AB2FB891343FB817B6840
:10148C00FA891A841437BD465DF8047B704700BF97
:10149C0080B485B000AF78600B467B800023FB8165
:1014AC007B681B8CFB81FB8923F08003FB817B8891
:1014BC001B019AB2FB891343FB817B68FA891A845E
:1014CC001437BD465DF8047B704700BF80B485B00F
:1014DC0000AF78600B467B800023FB817B681B8C04
:1014EC00FB81FB8923F40073FB817B881B029AB27E
:1014FC00FB891343FB817B68FA891A841437BD4638
:10150C005DF8047B704700BF80B485B000AF786095
:10151C000B467B800023FB817B681B8CFB81FB894A
:10152C0023F40063FB817B881B029AB2FB89134373
:10153C00FB817B68FA891A841437BD465DF8047BFD
:10154C00704700BF80B485B000AF78600B467B80DD
:10155C000023FB817B681B8CFB81FB8923F40053EC
:10156C00FB817B881B039AB2FB891343FB817B684D
:10157C00FA891A841437BD465DF8047B704700BFA6
:10158C0080B485B000AF78600B467B8013463B80FF
:10159C000023FB817B88012202FA03F3FB817B6829
:1015AC001B8C9AB2FB89DB439BB213409AB27B68CB
:1015BC001A847B681B8C9AB239887B8801FA03F3F6
:1015CC009BB213439AB27B681A841437BD465DF8FC
:1015DC00047B704780B485B000AF78600B467B808D
:1015EC0013463B800023FB817B88042202FA03F321
:1015FC00FB817B681B8C9AB2FB89DB439BB213404B
:10160C009AB27B681A847B681B8C9AB239887B8867
:10161C0001FA03F39BB213439AB27B681A84143712
:10162C00BD465DF8047B704780B485B000AF786030
:10163C000B467B8013463B800023FB6000237B81A1
:10164C007B68FB60FB681833FB607B88012202FA25
:10165C0003F37B817B681B8C9AB27B89DB439BB247
:10166C0013409AB27B681A847B88002B02D07B884B
:10167C00082B13D17B885B089BB21A46FB6813447A
:10168C00FB60FB68FA68126822F070021A60FB6853
:10169C00FA6811683A880A431A6016E07B88043BA2
:1016AC009BB25B089BB21A46FB681344FB60FB6859
:1016BC00FA68126822F4E0421A60FB68FA68126851
:1016CC003988090289B20A431A601437BD465DF89D
:1016DC00047B704780B483B000AF78600B46FB701E
:1016EC00FB78002B08D07B681B889BB243F002036D
:1016FC009AB27B681A8007E07B681B889BB223F048
:10170C0002039AB27B681A800C37BD465DF8047BE5
:10171C00704700BF80B483B000AF78600B467B800D
:10172C007B88002B08D07B681B889BB243F004039A
:10173C009AB27B681A8007E07B681B889BB223F007
:10174C0004039AB27B681A800C37BD465DF8047BA3
:10175C00704700BF80B483B000AF78600B46FB705D
:10176C00FB78002B08D07B689B889BB243F08003EE
:10177C009AB27B689A8007E07B689B889BB223F0C7
:10178C0080039AB27B689A800C37BD465DF8047B67
:10179C00704700BF80B483B000AF78600B467B808D
:1017AC007B681B889BB223F008039AB27B681A8073
:1017BC007B681B889AB27B8813439AB27B681A8029
:1017CC000C37BD465DF8047B704700BF80B483B016
:1017DC0000AF78600B467B807B689B889BB223F0C4
:1017EC0070039AB27B689A807B689B889AB27B88DC
:1017FC0013439AB27B689A800C37BD465DF8047B24
:10180C00704700BF80B483B000AF78600B467B801C
:10181C007B681B899BB223F007039AB27B681A8101
:10182C007B681B899AB27B8813439AB27B681A81B6
:10183C000C37BD465DF8047B704700BF80B483B0A5
:10184C0000AF78600B467B807B681B899BB223F0D2
:10185C0080039AB27B681A817B681B899AB27B8859
:10186C0013439AB27B681A810C37BD465DF8047B32
:10187C00704700BF80B483B000AF78600B467B80AC
:10188C007B687A889A840C37BD465DF8047B704778
:10189C0080B483B000AF78600B467B807B687A881D
:1018AC009A850C37BD465DF8047B704780B483B0D5
:1018BC0000AF78600B467B807B687A889A860C3701
:1018CC00BD465DF8047B704780B483B000AF786090
:1018DC000B467B807B687A881A870C37BD465DF88F
:1018EC00047B704780B483B000AF78600B467B807C
:1018FC007B687A889A870C37BD465DF8047B704705
:10190C0080B483B000AF78600B467B807B687A88AC
:10191C00A3F840200C37BD465DF8047B704700BF30
:10192C0080B483B000AF78600B467B807B681B8BE8
:10193C009BB223F00C039AB27B681A837B681B8BD7
:10194C009AB27B8813439AB27B681A830C37BD46D4
:10195C005DF8047B704700BF80B483B000AF786043
:10196C000B467B807B681B8B9BB223F440639AB243
:10197C007B681A837B681B8B9AB27B881B029BB299
:10198C0013439AB27B681A830C37BD465DF8047B0F
:10199C00704700BF80B483B000AF78600B467B808B
:1019AC007B689B8B9BB223F00C039AB27B689A8367
:1019BC007B689B8B9AB27B8813439AB27B689A8321
:1019CC000C37BD465DF8047B704700BF80B483B014
:1019DC0000AF78600B467B807B689B8B9BB223F4BB
:1019EC0040639AB27B689A837B689B8B9AB27B88A4
:1019FC001B029BB213439AB27B689A830C37BD4689
:101A0C005DF8047B704700BF80B483B000AF786092
:101A1C000B467B807B681B889BB223F440739AB285
:101A2C007B681A807B681B889AB27B8813439AB2B6
:101A3C007B681A800C37BD465DF8047B704700BF8D
:101A4C0080B483B000AF78607B689B8E9BB21846E5
:101A5C000C37BD465DF8047B704700BF80B483B083
:101A6C0000AF78607B681B8F9BB218460C37BD4665
:101A7C005DF8047B704700BF80B483B000AF786022
:101A8C007B689B8F9BB218460C37BD465DF8047B78
:101A9C00704700BF80B483B000AF78607B68B3F848
:101AAC0040309BB218460C37BD465DF8047B70473E
:101ABC0080B483B000AF78607B689B8C9BB2184677
:101ACC000C37BD465DF8047B704700BF80B483B013
:101ADC0000AF78607B681B8D9BB218460C37BD46F7
:101AEC005DF8047B704700BF80B485B000AF7860B0
:101AFC000B467B800023FB737B681B8A9AB27B8826
:101B0C0013409BB2002B02D00123FB7301E0002396
:101B1C00FB73FB7B18461437BD465DF8047B70479E
:101B2C0080B483B000AF78600B467B807B88DB434E
:101B3C009AB27B681A820C37BD465DF8047B7047FD
:101B4C0080B485B000AF78600B467B800023FB73BC
:101B5C000023BB8100237B817B681B8A9AB27B8824
:101B6C001340BB817B689B899AB27B8813407B8135
:101B7C00BB89002B05D07B89002B02D00123FB7382
:101B8C0001E00023FB73FB7B18461437BD465DF860
:101B9C00047B704780B483B000AF78600B467B80C9
:101BAC007B88DB439AB27B681A820C37BD465DF8A2
:101BBC00047B704780B487B000AFF86008461146CC
:101BCC001A4603467B810B463B811346FB80002360
:101BDC00BB820023FB82FB681B8C9BB223F00103AE
:101BEC009AB2FB681A84FB681B8BBB82FB681B8C4C
:101BFC00FB82BB8A23F0F303BB82FB881B019AB2E6
:101C0C003B8913439AB2BB8A1343BB82FB681C4AC1
:101C1C00934213D0FB681B4A93420FD0FB68B3F17D
:101C2C00804F0BD0FB68184A934207D0FB68174AC9
:101C3C00934203D0FB68164A93420BD1FB8A23F0E4
:101C4C000203FB827A89FB8A13439BB243F00103A4
:101C5C00FB820AE0FB8A23F00A03FB827A89FB8A67
:101C6C0013439BB243F00103FB82FB68BA8A1A83CD
:101C7C00FB68FA8A1A841C37BD465DF8047B7047F2
:101C8C00002C0140003401400004004000080040DA
:101C9C00000C004080B487B000AFF86008461146D5
:101CAC001A4603467B810B463B811346FB8000237F
:101CBC00BB820023FB8200237B82FB681B8C9BB2C4
:101CCC0023F010039AB2FB681A84FB681B8BBB824F
:101CDC00FB681B8CFB827B891B017B82BB8A23F4F8
:101CEC0040731B051B0DBB82FB881B039AB2BB8A7E
:101CFC001343BB823B891B029AB2BB8A1343BB8240
:101D0C00FB681C4A934213D0FB681B4A93420FD0CA
:101D1C00FB68B3F1804F0BD0FB68184A934207D095
:101D2C00FB68174A934203D0FB68164A93420BD1C7
:101D3C00FB8A23F02003FB827A8AFB8A13439BB233
:101D4C0043F01003FB820AE0FB8A23F0A003FB8222
:101D5C007A89FB8A13439BB243F01003FB82FB6826
:101D6C00BA8A1A83FB68FA8A1A841C37BD465DF856
:101D7C00047B7047002C01400034014000040040FB
:101D8C0000080040000C004080B487B000AFF86041
:101D9C00084611461A4603467B810B463B81134687
:101DAC00FB800023BB820023FB8200237B82FB6829
:101DBC001B8C9BB223F480739AB2FB681A84FB6869
:101DCC009B8BBB82FB681B8CFB827B891B027B82FF
:101DDC00BB8A23F0F303BB82FB881B019AB23B89BD
:101DEC0013439AB2BB8A1343BB82FB681C4A9342CF
:101DFC0013D0FB681B4A93420FD0FB68B3F1804FA2
:101E0C000BD0FB68184A934207D0FB68174A9342E1
:101E1C0003D0FB68164A93420BD1FB8A23F4007360
:101E2C00FB827A8AFB8A13439BB243F48073FB8256
:101E3C000AE0FB8A23F42063FB827A89FB8A134332
:101E4C009BB243F48073FB82FB68BA8A9A83FB686B
:101E5C00FA8A1A841C37BD465DF8047B704700BFB4
:101E6C00002C0140003401400004004000080040F8
:101E7C00000C004080B487B000AFF86008461146F3
:101E8C001A4603467B810B463B811346FB8000239D
:101E9C00BB820023FB8200237B82FB681B8C9BB2E2
:101EAC0023F480539AB2FB681A84FB689B8BBB8229
:101EBC00FB681B8CFB827B891B037B82BB8A23F414
:101ECC0040731B051B0DBB823B891B029AB2BB8A5C
:101EDC001343BB82FB881B039AB2BB8A1343BB829E
:101EEC00FB681D4A934213D0FB681C4A93420FD0E7
:101EFC00FB68B3F1804F0BD0FB68194A934207D0B3
:101F0C00FB68184A934203D0FB68174A93420BD1E3
:101F1C00FB8A23F40053FB827A8AFB8A13439BB21D
:101F2C0043F48053FB820CE0FB8A23F400735B04C4
:101F3C005B0CFB827A89FB8A13439BB243F480537C
:101F4C00FB82FB68BA8A9A83FB68FA8A1A841C376C
:101F5C00BD465DF8047B7047002C01400034014005
:101F6C000004004000080040000C004080B582B026
:101F7C0000AF78607B682F4A934208D1042001217E
:101F8C0001F084F80420002101F080F84EE07B6819
:101F9C00294A934208D10820012101F077F8082042
:101FAC00002101F073F841E07B68244A934208D188
:101FBC001020012101F06AF81020002101F066F8D0
:101FCC0034E07B681E4A934208D12020012101F0A5
:101FDC005DF82020002101F059F827E07B68194AB0
:101FEC00934208D14020012101F050F840200021FB
:101FFC0001F04CF81AE07B68134A934208D1802018
:10200C00012101F043F88020002101F03FF80DE0A0
:10201C007B680E4A934209D14FF48070012101F084
:10202C0035F84FF48070002101F030F80837BD46C8
:10203C0080BD00BF00080140000C014000100140B1
:10204C000014014000180140001C01400020014018
:10205C0080B500AF0120012101F018F8012000210A
:10206C0001F014F880BD00BF80B489B000AF786077
:10207C0039600023FB6100233B610023BB6100231B
:10208C00FB6000237B610023BB603B68DB7803F0C3
:10209C000F03FB613B68DB7803F01003002B05D0CA
:1020AC003B689B781A46FB691343FB613B681B88B2
:1020BC00DBB2002B44D07B681B687B610023BB61C7
:1020CC0038E0BB69012202FA03F3FB603B681B8812
:1020DC001A46FB6813403B613A69FB689A4226D169
:1020EC00BB699B00FB60FB680F2202FA03F3BB6029
:1020FC00BB68DB437A6913407B61FB68FA6902FABF
:10210C0003F37A6913437B613B68DB78282B05D199
:10211C00BB6901229A407B685A6108E03B68DB7816
:10212C00482B04D1BB6901229A407B681A61BB69B8
:10213C000133BB61BB69072BC3D97B687A691A6011
:10214C003B681B88FF2B4AD97B685B687B6100234B
:10215C00BB613EE0BB6908331A4601239340FB6028
:10216C003B681B881A46FB6813403B613A69FB6865
:10217C009A422BD1BB699B00FB60FB680F2202FAD1
:10218C0003F3BB60BB68DB437A6913407B61FB687C
:10219C00FA6902FA03F37A6913437B613B68DB78D3
:1021AC00282B07D1BB6908331A46012303FA02F224
:1021BC007B685A613B68DB78482B07D1BB690833D5
:1021CC001A46012303FA02F27B681A61BB690133D8
:1021DC00BB61BB69072BBDD97B687A695A60243710
:1021EC00BD465DF8047B704780B483B000AF786067
:1021FC007B684FF6FF721A807B6802229A707B68AC
:10220C000422DA700C37BD465DF8047B704700BFC2
:10221C0080B485B000AF78600B467B800023FB73E5
:10222C007B689A687B881340002B02D00123FB73D8
:10223C0001E00023FB73FB7B18461437BD465DF8A9
:10224C00047B704780B483B000AF78607B689B6878
:10225C009BB218460C37BD465DF8047B704700BF37
:10226C0080B485B000AF78600B467B800023FB7395
:10227C007B68DA687B881340002B02D00123FB7348
:10228C0001E00023FB73FB7B18461437BD465DF859
:10229C00047B704780B483B000AF78607B68DB68E8
:1022AC009BB218460C37BD465DF8047B704700BFE7
:1022BC0080B483B000AF78600B467B807A887B68F3
:1022CC001A610C37BD465DF8047B704780B483B04F
:1022DC0000AF78600B467B807A887B685A610C373C
:1022EC00BD465DF8047B704780B483B000AF786066
:1022FC000B467B8013467B707B78002B03D07A884F
:10230C007B681A6102E07A887B685A610C37BD469B
:10231C005DF8047B704700BF80B483B000AF786079
:10232C000B467B807A887B68DA600C37BD465DF89B
:10233C00047B704780B485B000AF78600B467B801F
:10234C004FF48033FB607B88FA681343FB607B6837
:10235C00FA689A617A887B689A617B68FA689A61F4
:10236C007B689B69FB607B689B69FB601437BD468F
:10237C005DF8047B704700BF80B485B000AF0346A6
:10238C000A46FB711346BB710023FB600C4B1B68A8
:10239C00FB60FA684FF680731340FB60FB791B01FE
:1023AC00FA681343FB60BB79FA681343FB60044A79
:1023BC00FB6813601437BD465DF8047B704700BFA3
:1023CC000000014080B483B000AF0346FB71044AA7
:1023DC00FB7913600C37BD465DF8047B704700BF7A
:1023EC001C00204280B487B000AF78600B46FB70B5
:1023FC0000233B610023FB6000237B610023BB6057
:10240C007B68002B03DA2E4BDB697B6102E02C4BE3
:10241C005B687B617B6803F470231B0CBB607B687F
:10242C009BB23B617B6803F44013B3F5401F0AD1A8
:10243C007B6923F070637B61214A214B5B6823F03D
:10244C007063536021E07B6803F48013002B0ED083
:10245C00BB68032202FA03F3FB60FB68DB437A6977
:10246C0013407B617B6943F070637B610DE07B689B
:10247C005B0D1B011A463B699340DB437A691340A1
:10248C007B617B6943F070637B61FB78002B08D028
:10249C007B685B0D1B011A463B6993407A691343B9
:1024AC007B617B68002B03DA054A7B69D36102E010
:1024BC00034A7B6953601C37BD465DF8047B70474B
:1024CC000000014090B484B000AF03460A46FB7193
:1024DC001346BB710023FB60BB7903F003039B0025
:1024EC000F2202FA03F3FB601649BB799B08DBB29F
:1024FC001846144ABB799B08DBB2023352F82320EE
:10250C00FB68DB431A40831C41F823200D48BB7940
:10251C009B08DBB21C460B4ABB799B08DBB202332F
:10252C0052F82320F979BB7903F003039B0001FADD
:10253C0003F31A43A31C40F823201037BD4690BC6C
:10254C00704700BF0000014080B483B000AF7860DA
:10255C00034A7B6813600C37BD465DF8047B7047FB
:10256C00DC00204280B584B000AF78600B467B80E5
:10257C0013467B707B68354A934208D104200121B5
:10258C0000F048FD0420002100F080FD4EE07B6847
:10259C002F4A934208D10820012100F03BFD08206E
:1025AC00002100F073FD41E07B682A4A934208D178
:1025BC001020012100F02EFD1020002100F066FDFE
:1025CC0034E07B68244A934208D12020012100F09A
:1025DC0021FD2020002100F059FD27E07B681F4AD7
:1025EC00934208D14020012100F014FD402000212D
:1025FC0000F04CFD1AE07B68194A934208D1802008
:10260C00012100F007FD8020002100F03FFD0DE0CE
:10261C007B68144A934209D14FF48070012100F079
:10262C00F9FC4FF48070002100F030FD7B88BB81F9
:10263C007B78FB730323BB7307F10C037868194693
:10264C00FFF712FD1037BD4680BD00BF00080140EA
:10265C00000C014000100140001401400018014022
:10266C00001C01400020014080B483B000AF034641
:10267C00FB71084997F907305B09FA7902F01F02E0
:10268C00012000FA02F241F823200C37BD465DF818
:10269C00047B704700E100E080B500AF0D480021DD
:1026AC00FEF73AFA00F018F80A480121FFF772FA1F
:1026BC0008480021FFF7DEF806480121FFF72AF849
:1026CC001920FFF7D1FF034801210122FEF76AFA16
:1026DC0080BD00BF002C014080B500AF4FF40060FE
:1026EC00012100F097FC4FF40060002100F0CEFCBB
:1026FC0080BD00BF90B58FB004AF78600B467B8077
:10270C0013463B800023FB840023BB8400237B8483
:10271C0007F10C03184600F0ADFBB9693A88134673
:10272C001B049B1AB1FBF3F37B84BB693A88798C4D
:10273C00013101FB02F2B3FBF2F39BB2013BFB84D0
:10274C00FB8C013B1A46322303FB02F3124AA2FB19
:10275C0003235B09BB847A8CFC8C0023009300233D
:10276C0001930E4811460022234600F019F87A888E
:10277C00BC8C01230093002301934FF480730293CC
:10278C0000230393054811466022234600F034F8D9
:10279C002C37BD4690BD00BF1F85EB51002C01406E
:1027AC0080B584B000AFF860084611461A4603465F
:1027BC007B810B463B811346FB800E4A7B89138041
:1027CC000C4A3B8953800B4AFB889380094A3B8B0C
:1027DC00D380084B00221A72F8680649FDF7D4FD25
:1027EC00BB8BDBB2F8681946FEF720FC1037BD46F0
:1027FC0080BD00BF7004002080B584B000AFF860CD
:10280C00084611461A4603467B810B463B8113460C
:10281C00FB80224A3B891380204AFB88D3801F4AC5
:10282C003B8B53801D4ABB8B13811C4A3B8C938181
:10283C007B89012B09D1F8681849FDF721FEBB8C67
:10284C00F8681946FEF772FC25E07B89022B09D14A
:10285C00F8681249FDF7A0FEBB8CF8681946FEF724
:10286C0081FC18E07B89032B09D1F8680B49FDF733
:10287C001BFFBB8CF8681946FEF792FC0BE07B89BA
:10288C00042B08D1F8680549FDF794FFBB8CF86858
:10289C001946FEF7A1FC1037BD4680BD7C04002014
:1028AC0080B584B000AFF860084611461A4603465E
:1028BC007B810B463B811346FB800B4A7B89138043
:1028CC00094A3B895380084AFB889380064A3B8B14
:1028DC00D380054ABB8B1381F8680349FEF726F8B1
:1028EC001037BD4680BD00BF8C04002090B58BB066
:1028FC0004AF304B00221A802F4840211022FFF7E2
:10290C0031FE2D4820210422FFF72CFE2B484FF4DA
:10291C0080711C22FFF726FE28484FF40061042228
:10292C00FFF720FE24484FF4D0610422FFF71AFE73
:10293C00FFF7B2FE3B46184600F09CFA0023FB82E0
:10294C000023BB82FB681E4AA2FB03235B0B9BB2DA
:10295C00013BFB82FB8A013B9B001A4AA2FB03232F
:10296C005B09BB82FC8A0023009300230193164869
:10297C00012100222346FFF713FFBC8A0123009399
:10298C00002301934FF480730293002303930E48AA
:10299C00012160222346FFF72FFF0B480121FEF790
:1029AC00BBF809480121FEF7D7F803484021FFF78F
:1029BC008DFCFEE76C040020000C01400008014077
:1029CC0073B2E7451F85EB51002C014080B485B0F4
:1029DC0000AF78600023FB6002E0FB680133FB6012
:1029EC007B68642202FB03F2FB689A42F5DC143725
:1029FC00BD465DF8047B704780B582B000AF002304
:102A0C00FB8019480121FFF79BF80346002B27D0C8
:102A1C00164B1B8801339AB2144B1A80134B1B882C
:102A2C00012B06D1104801214FF47A72FFF762FE98
:102A3C0012E00E4B1B88052B06D10B4801214FF4DD
:102A4C00FA62FFF757FE07E0084B1B88092B03D1EE
:102A5C0005485021FEF776FA03480121FFF79AF852
:102A6C000837BD4680BD00BF002C01406C0400201F
:102A7C0080B400AF134A134B1B6843F0010313607F
:102A8C001049104B5A68104B13404B600D4A0D4BBC
:102A9C001B6823F0847323F480331360094A094BB9
:102AAC001B6823F480231360064A064B5B6823F4EF
:102ABC00FE035360034B4FF41F029A60BD465DF852
:102ACC00047B7047001002400000FFF880B483B014
:102ADC0000AF7860134A134B1B6823F480331360E8
:102AEC00104A104B1B6823F4802313607B68B3F5EA
:102AFC00803F03D0B3F5802F07D00DE0094A094B76
:102B0C001B6843F48033136006E0064A054B1B68D0
:102B1C0043F4A023136000BF0C37BD465DF8047B63
:102B2C00704700BF0010024080B582B000AF002398
:102B3C003B600023FB710023BB71312000F012FBC2
:102B4C000346BB713B6801333B603B68B3F5A06F38
:102B5C0002D0BB79002BF0D0312000F003FB0346F0
:102B6C00002B02D00123FB7101E00023FB71FB79E8
:102B7C0018460837BD4680BD80B485B000AF03460B
:102B8C00FB710023FB600A4B1B68FB60FB6823F0A6
:102B9C00F803FB60FB79DB00FA681343FB60044A23
:102BAC00FB6813601437BD465DF8047B704700BFAB
:102BBC000010024080B483B000AF0346FB71044A9E
:102BCC00FB7913600C37BD465DF8047B704700BF82
:102BDC000000424280B485B000AF786039600023B9
:102BEC00FB600A4B5B68FB60FB6823F47C13FB60A7
:102BFC007A683B681343FA681343FB60034AFB682B
:102C0C0053601437BD465DF8047B704700100240DA
:102C1C0080B483B000AF0346FB71044AFB791360A8
:102C2C000C37BD465DF8047B704700BF6000424224
:102C3C0080B485B000AF78600023FB60094B5B6803
:102C4C00FB60FB6823F00303FB60FA687B681343AB
:102C5C00FB60044AFB6853601437BD465DF8047B87
:102C6C00704700BF0010024080B400AF054B5B689A
:102C7C00DBB203F00C03DBB21846BD465DF8047BF7
:102C8C00704700BF0010024080B485B000AF786080
:102C9C000023FB60094B5B68FB60FB6823F0F003CF
:102CAC00FB60FA687B681343FB60044AFB68536063
:102CBC001437BD465DF8047B704700BF001002401E
:102CCC0080B485B000AF78600023FB60094B5B6873
:102CDC00FB60FB6823F4E063FB60FA687B681343DA
:102CEC00FB60044AFB6853601437BD465DF8047BF7
:102CFC00704700BF0010024080B485B000AF786010
:102D0C000023FB60094B5B68FB60FB6823F460539A
:102D1C00FB607B68DB00FA681343FB60034AFB68CB
:102D2C0053601437BD465DF8047B704700100240B9
:102D3C0080B483B000AF03460A46FB711346BB71E7
:102D4C00BB79002B08D00C490B4B1B78DAB2FB7902
:102D5C001343DBB20B7009E00749074B1B78DAB25F
:102D6C00FB79DB43DBB21340DBB20B700C37BD4697
:102D7C005DF8047B704700BF0910024080B483B03B
:102D8C0000AF7860034A7B6813600C37BD465DF872
:102D9C00047B7047D800424280B485B000AF7860A5
:102DAC000023FB60094B5B68FB60FB6823F440432A
:102DBC00FB60FA687B681343FB60044AFB68536052
:102DCC001437BD465DF8047B704700BF001002400D
:102DDC0080B483B000AF0346FB710C4B00221A7019
:102DEC000A4B00221A70FB79012B02D0042B04D061
:102DFC0007E0064B01221A7003E0044B05221A70FF
:102E0C0000BF0C37BD465DF8047B704720100240B4
:102E1C0080B483B000AF0346FB71044AFB791360A6
:102E2C000C37BD465DF8047B704700BF80044242FE
:102E3C0080B483B000AF78600549054B1A6A7B6893
:102E4C0013430B620C37BD465DF8047B704700BF23
:102E5C000010024080B483B000AF0346FB71044AFB
:102E6C00FB7913600C37BD465DF8047B704700BFDF
:102E7C003C04424280B487B000AF786000237B6191
:102E8C0000233B610023FB600023BB604D4B5B6860
:102E9C0003F00C037B617B69042B07D0082B09D052
:102EAC00002B34D17B68484A1A6034E07B68464A70
:102EBC001A6030E0434B5B6803F470133B61414B89
:102ECC005B6803F48033FB603B699B0C02333B6112
:102EDC00FB68002B06D13B693C4A02FB03F27B6882
:102EEC001A6013E0374B5B6803F40033002B06D0F9
:102EFC003B69364A02FB03F27B681A6006E03B69C9
:102F0C00314A02FB03F27B681A6004E003E07B6841
:102F1C002D4A1A6000BF2B4B5B6803F0F0037B61FA
:102F2C007B691B097B612A4A7B6913441B78DBB2E2
:102F3C00BB607B681A68BB68DA407B685A60214BBF
:102F4C005B6803F4E0637B617B691B0A7B61204A4D
:102F5C007B6913441B78DBB2BB607B685A68BB6827
:102F6C00DA407B689A60174B5B6803F460537B61B3
:102F7C007B69DB0A7B61164A7B6913441B78DBB2E5
:102F8C00BB607B685A68BB68DA407B68DA600D4BC3
:102F9C005B6803F440437B617B699B0B7B610D4A4F
:102FAC007B6913441B78DBB2BB607B68DA68BB6857
:102FBC00B2FBF3F27B681A611C37BD465DF8047BEB
:102FCC00704700BF0010024000127A0000093D005B
:102FDC00000000201000002080B483B000AF7860A7
:102FEC000B46FB70FB78002B06D00949084B5A693D
:102FFC007B6813434B6106E00549054B5A697B68B6
:10300C00DB4313404B610C37BD465DF8047B7047C6
:10301C000010024080B483B000AF78600B46FB70A8
:10302C00FB78002B06D00949084B9A697B6813433F
:10303C008B6106E00549054B9A697B68DB431340BD
:10304C008B610C37BD465DF8047B70470010024065
:10305C0080B483B000AF78600B46FB70FB78002B1C
:10306C0006D00949084BDA697B681343CB6106E04B
:10307C000549054BDA697B68DB431340CB610C37A0
:10308C00BD465DF8047B70470010024080B483B0ED
:10309C0000AF78600B46FB70FB78002B06D009491B
:1030AC00084BDA687B681343CB6006E00549054B97
:1030BC00DA687B68DB431340CB600C37BD465DF8A8
:1030CC00047B70470010024080B483B000AF78607E
:1030DC000B46FB70FB78002B06D00949084B1A698C
:1030EC007B6813430B6106E00549054B1A697B6845
:1030FC00DB4313400B610C37BD465DF8047B704716
:10310C000010024080B483B000AF0346FB71044A48
:10311C00FB7913600C37BD465DF8047B704700BF2C
:10312C004004424280B483B000AF0346FB71044AB2
:10313C00FB7913600C37BD465DF8047B704700BF0C
:10314C004C00424280B483B000AF0346FB71044A8A
:10315C00FB7913700C37BD465DF8047B704700BFDC
:10316C000710024080B487B000AF0346FB71002308
:10317C00FB6000237B610023FB74FB795B09DBB2F2
:10318C00FB60FB68012B03D1124B1B687B6109E0D0
:10319C00FB68022B03D10F4B1B6A7B6102E00D4BCA
:1031AC005B6A7B61FB7903F01F03FB60FB687A6948
:1031BC0022FA03F303F00103002B02D00123FB746A
:1031CC0001E00023FB74FB7C18461C37BD465DF800
:1031DC00047B70470010024080B400AF044A044BDB
:1031EC005B6A43F080735362BD465DF8047B7047A5
:1031FC000010024080B485B000AF0346FB71002381
:10320C00FB73094B9A68FB791340002B02D0012306
:10321C00FB7301E00023FB73FB7B18461437BD46A0
:10322C005DF8047B704700BF0010024080B483B08F
:10323C0000AF0346FB71044AFB7913700C37BD4693
:10324C005DF8047B704700BF0A10024080B500AFE8
:10325C00154A154B1B6843F0010313601249124BBE
:10326C005A68124B13404B600F4A0F4B1B6823F0EC
:10327C00847323F4803313600B4A0B4B1B6823F4C9
:10328C0080231360084A084B5B6823F4FE035360E9
:10329C00054B4FF41F029A6000F07AF8044B4FF084
:1032AC0000629A6080BD00BF001002400000FFF871
:1032BC0000ED00E080B485B000AF0023FB6000237C
:1032CC00BB6000237B602D4B5B6803F00C03FB6041
:1032DC00FB68042B07D0082B09D0002B34D1284BCA
:1032EC00284A1A6034E0264B264A1A6030E0234BF9
:1032FC005B6803F47013BB60204B5B6803F4803392
:10330C007B60BB689B0C0233BB607B68002B06D1D7
:10331C00BB681D4A02FB03F3194A136013E0174BF9
:10332C005B6803F40033002B06D0BB68164A02FB23
:10333C0003F3134A136006E0BB68124A02FB03F363
:10334C000F4A136004E003E00D4B0E4A1A6000BFF5
:10335C000A4B5B6803F0F0031B090C4AD35CDBB22D
:10336C00FB60074B1A68FB6822FA03F3044A1360EC
:10337C001437BD465DF8047B704700BF0010024057
:10338C001400002000127A0000093D0018000020F3
:10339C0080B500AF00F002F880BD00BF80B483B0F0
:1033AC0000AF00237B6000233B603A4A394B1B681B
:1033BC0043F480331360374B1B6803F400333B60DA
:1033CC007B6801337B603B68002B03D17B68B3F5D2
:1033DC00A06FF0D12F4B1B6803F40033002B02D0ED
:1033EC0001233B6001E000233B603B68012B4BD188
:1033FC00294A294B1B6843F010031360264A264BBD
:10340C001B6823F007031360234A234B1B6843F00C
:10341C00020313601F4A1F4B5B6853601D4A1D4B10
:10342C005B6853601B4A1B4B5B6843F480635360BF
:10343C00184A184B5B6823F47C135360154A154BE0
:10344C005B6843F4E8135360124A124B1B6843F059
:10345C008073136000BF0F4B1B6803F00073002BCD
:10346C00F9D00C4A0B4B5B6823F003035360094AF9
:10347C00084B5B6843F00203536000BF054B5B686D
:10348C0003F00C03082BF9D10C37BD465DF8047B17
:10349C00704700BF001002400020024070B50F4E74
:1034AC000F4D761BB61018BF002405D0013455F80B
:1034BC00043B9847A642F9D10A4E0B4D00F0B4F8E4
:1034CC00761BB61018BF002406D0013455F8043B07
:1034DC009847A642F9D170BD70BD00BF54360008A4
:1034EC00543600085C36000854360008024B13B101
:1034FC00024800F005B870470000000019350008BC
:10350C00014600200246034600F016B838B5084BB9
:10351C00084DED1AAC1018BFED1805D0013C55F84C
:10352C00043D9847002CF9D1BDE8384000F082B832
:10353C005C360008603600082DE9F047254C06463D
:10354C0025688846D5F8484192469946C4B36068C8
:10355C001F2817DC411C76B104EB8003C3F888A04C
:10356C00D4F88851012282401543022EC4F88851A8
:10357C00C3F808911ED0831C6160002044F823809E
:10358C00BDE8F087144B03B34FF4C870AFF3008061
:10359C000446D0B1D5F84831002784E88800384675
:1035AC00C5F848410121C4F88871C4F88C71002E0B
:1035BC00E1D0D1E7D4F88C311A43C4F88C21DAE786
:1035CC0005F5A674C5F84841C1E74FF0FF30BDE8DA
:1035DC00F08700BF5036000800000000002103E017
:1035EC000B4B5B58435004310A480B4B42189A4220
:1035FC00F6D30A4A02E0002342F8043B084B9A42F5
:10360C00F9D3FFF723FEFFF749FFFFF76FF9704778
:10361C0060360008000000205004002050040020F8
:10362C0098040020FEE70000F8B500BFF8BC08BC09
:10363C009E467047F8B500BFF8BC08BC9E46704764
:08364C004300000028000020EB
:08365400F934000831010008FF
:04365C000D01000854
:103660000000000001020304010203040607080928
:103670000204060800A24A04000000000000000046
:1036800001020304060708090000000014030020DB
:103690007C030020E4030020000000000000000084
:1036A000000000000000000000000000000000001A
:1036B0000000000000000000000000004C36000880
:1036C00000000000000000000000000000000000FA
:1036D00000000000000000000000000000000000EA
:1036E00000000000000000000000000000000000DA
:1036F00000000000000000000000000000000000CA
:1037000000000000000000000000000000000000B9
:1037100000000000000000000000000000000000A9
:103720000000000000000000000000000000000099
:1037300001000000000000000E33CDAB34126DE636
:10374000ECDE05000B00000000000000000000009F
:103750000000000000000000000000000000000069
:103760000000000000000000000000000000000059
:103770000000000000000000000000000000000049
:103780000000000000000000000000000000000039
:04000005080035E9D1
:00000001FF
